2|start_indexer_agent  | {"level":20,"time":1611186218408,"pid":3920982,"hostname":"suntzu-server","name":"IndexerAgent","number":1,"deployments":[{"bytes32":"0x31edcacc9a53bc8ab4be2eeb0d873409da4c4228cb2d60e4243bd3b4e8af7500","ipfsHash":"QmRhYzT8HEZ9LziQhP6JfNfd4co9A7muUYQhPMJsMUojSF"}],"msg":"Deployments to reconcile allocations for"}
2|start_indexer_agent  | {"level":30,"time":1611186218412,"pid":3920982,"hostname":"suntzu-server","name":"IndexerAgent","deployment":{"bytes32":"0x31edcacc9a53bc8ab4be2eeb0d873409da4c4228cb2d60e4243bd3b4e8af7500","ipfsHash":"QmRhYzT8HEZ9LziQhP6JfNfd4co9A7muUYQhPMJsMUojSF"},"epoch":33,"allocationAmount":"12622743.0","totalActiveAllocationAmount":"12637752.0","desiredNumberOfAllocations":1,"activeNumberOfAllocations":1,"activeAllocations":[{"id":"0xc9D16d8Bb861581A543d14B0a258b3cE3A922957","createdAtEpoch":32,"amount":"12637752.0"}],"msg":"Reconcile deployment allocations"}
2|start_indexer_agent  | {"level":30,"time":1611186218412,"pid":3920982,"hostname":"suntzu-server","name":"IndexerAgent","deployment":{"bytes32":"0x31edcacc9a53bc8ab4be2eeb0d873409da4c4228cb2d60e4243bd3b4e8af7500","ipfsHash":"QmRhYzT8HEZ9LziQhP6JfNfd4co9A7muUYQhPMJsMUojSF"},"epoch":33,"allocations":["0xc9D16d8Bb861581A543d14B0a258b3cE3A922957"],"msg":"Deployment is not (or no longer) worth indexing, close all active allocations that are at least one epoch old"}
2|start_indexer_agent  | {"level":30,"time":1611186218412,"pid":3920982,"hostname":"suntzu-server","name":"IndexerAgent","indexer":"0x4167EB613d784C910f5dc0F3f0515D61Ec6EC8DF","subgraph":"QmRhYzT8HEZ9LziQhP6JfNfd4co9A7muUYQhPMJsMUojSF","block":{"number":11666086,"hash":"0x012ce22ee18d3130414b71a6b8e619260bb5c0c9bf2bdce3a8ea4240ba695ff6"},"attempt":1,"msg":"Query proof of indexing"}
2|start_indexer_agent  | {"level":30,"time":1611186218420,"pid":3920982,"hostname":"suntzu-server","name":"IndexerAgent","component":"Network","indexer":"0x4167EB613d784C910f5dc0F3f0515D61Ec6EC8DF","operator":"0xD96d4B52CAb35cF3DF1d58765bD2eA7cb1Fb6016","allocation":"0xc9D16d8Bb861581A543d14B0a258b3cE3A922957","deployment":{"bytes32":"0x31edcacc9a53bc8ab4be2eeb0d873409da4c4228cb2d60e4243bd3b4e8af7500","ipfsHash":"QmRhYzT8HEZ9LziQhP6JfNfd4co9A7muUYQhPMJsMUojSF"},"createdAtEpoch":32,"poi":"0xa2905b86f06918f13d6c5bc0f0d568db18ed82d3b5ce78db1ac03b7e6575c70f","createdAtBlockHash":"0x699079a6fcdb2bd80ac7a61912fed92b372192138b9b9114c7c1f4f0f0e62958","msg":"Close allocation"}
2|start_indexer_agent  | {"level":40,"time":1611186218527,"pid":3920982,"hostname":"suntzu-server","name":"IndexerAgent","component":"Network","indexer":"0x4167EB613d784C910f5dc0F3f0515D61Ec6EC8DF","operator":"0xD96d4B52CAb35cF3DF1d58765bD2eA7cb1Fb6016","allocation":"0xc9D16d8Bb861581A543d14B0a258b3cE3A922957","deployment":{"bytes32":"0x31edcacc9a53bc8ab4be2eeb0d873409da4c4228cb2d60e4243bd3b4e8af7500","ipfsHash":"QmRhYzT8HEZ9LziQhP6JfNfd4co9A7muUYQhPMJsMUojSF"},"createdAtEpoch":32,"poi":"0xa2905b86f06918f13d6c5bc0f0d568db18ed82d3b5ce78db1ac03b7e6575c70f","createdAtBlockHash":"0x699079a6fcdb2bd80ac7a61912fed92b372192138b9b9114c7c1f4f0f0e62958","err":{"type":"IndexerError","message":"Failed to close allocation","stack":"IndexerError: Failed to close allocation\n    at Object.indexerError (/usr/local/lib/node_modules/@graphprotocol/indexer-agent/node_modules/@graphprotocol/indexer-common/dist/errors.js:97:12)\n    at Network.<anonymous> (/usr/local/lib/node_modules/@graphprotocol/indexer-agent/dist/network.js:530:43)\n    at Generator.throw (<anonymous>)\n    at rejected (/usr/local/lib/node_modules/@graphprotocol/indexer-agent/dist/network.js:25:65)\n    at processTicksAndRejections (internal/process/task_queues.js:93:5)","code":"IE015","explanation":"https://github.com/graphprotocol/indexer/blob/master/docs/errors.md#ie015","cause":{"type":"Error","message":"processing response error (body=\"{\\\"jsonrpc\\\":\\\"2.0\\\",\\\"error\\\":{\\\"code\\\":-32010,\\\"message\\\":\\\"Transaction with the same hash was already imported.\\\"},\\\"id\\\":96}\\n\", error={\"code\":-32010}, requestBody=\"{\\\"method\\\":\\\"eth_sendRawTransaction\\\",\\\"params\\\":[\\\"0xf8aa51850ba43b74018305b78e94f55041e37e12cd407ad00ce2910b8269b01263b980b84444c32a61000000000000000000000000c9d16d8bb861581a543d14b0a258b3ce3a922957a2905b86f06918f13d6c5bc0f0d568db18ed82d3b5ce78db1ac03b7e6575c70f25a0ae8a28d30845ea7dc7ee11c07b44c03aa5674506ce37e922d89b45ccfc194edba0220837dd93e20ece68a1b972401be117cd732d9e708239c8133ec64a720f6a3f\\\"],\\\"id\\\":96,\\\"jsonrpc\\\":\\\"2.0\\\"}\", requestMethod=\"POST\", url=\"http://127.0.0.1:8545/\", code=SERVER_ERROR, version=web/5.0.12)","stack":"Error: processing response error (body=\"{\\\"jsonrpc\\\":\\\"2.0\\\",\\\"error\\\":{\\\"code\\\":-32010,\\\"message\\\":\\\"Transaction with the same hash was already imported.\\\"},\\\"id\\\":96}\\n\", error={\"code\":-32010}, requestBody=\"{\\\"method\\\":\\\"eth_sendRawTransaction\\\",\\\"params\\\":[\\\"0xf8aa51850ba43b74018305b78e94f55041e37e12cd407ad00ce2910b8269b01263b980b84444c32a61000000000000000000000000c9d16d8bb861581a543d14b0a258b3ce3a922957a2905b86f06918f13d6c5bc0f0d568db18ed82d3b5ce78db1ac03b7e6575c70f25a0ae8a28d30845ea7dc7ee11c07b44c03aa5674506ce37e922d89b45ccfc194edba0220837dd93e20ece68a1b972401be117cd732d9e708239c8133ec64a720f6a3f\\\"],\\\"id\\\":96,\\\"jsonrpc\\\":\\\"2.0\\\"}\", requestMethod=\"POST\", url=\"http://127.0.0.1:8545/\", code=SERVER_ERROR, version=web/5.0.12)\n    at Logger.makeError (/usr/local/lib/node_modules/@graphprotocol/indexer-agent/node_modules/@ethersproject/logger/lib/index.js:179:21)\n    at Logger.throwError (/usr/local/lib/node_modules/@graphprotocol/indexer-agent/node_modules/@ethersproject/logger/lib/index.js:188:20)\n    at /usr/local/lib/node_modules/@graphprotocol/indexer-agent/node_modules/@ethersproject/web/lib/index.js:265:32\n    at step (/usr/local/lib/node_modules/@graphprotocol/indexer-agent/node_modules/@ethersproject/web/lib/index.js:33:23)\n    at Object.next (/usr/local/lib/node_modules/@graphprotocol/indexer-agent/node_modules/@ethersproject/web/lib/index.js:14:53)\n    at fulfilled (/usr/local/lib/node_modules/@graphprotocol/indexer-agent/node_modules/@ethersproject/web/lib/index.js:5:58)\n    at processTicksAndRejections (internal/process/task_queues.js:93:5)","reason":"processing response error","code":"SERVER_ERROR","body":"{\"jsonrpc\":\"2.0\",\"error\":{\"code\":-32010,\"message\":\"Transaction with the same hash was already imported.\"},\"id\":96}\n","error":{"type":"Error","message":"Transaction with the same hash was already imported.","stack":"Error: Transaction with the same hash was already imported.\n    at getResult (/usr/local/lib/node_modules/@graphprotocol/indexer-agent/node_modules/@ethersproject/providers/lib/json-rpc-provider.js:118:21)\n    at processJsonFunc (/usr/local/lib/node_modules/@graphprotocol/indexer-agent/node_modules/@ethersproject/web/lib/index.js:308:22)\n    at /usr/local/lib/node_modules/@graphprotocol/indexer-agent/node_modules/@ethersproject/web/lib/index.js:240:46\n    at step (/usr/local/lib/node_modules/@graphprotocol/indexer-agent/node_modules/@ethersproject/web/lib/index.js:33:23)\n    at Object.next (/usr/local/lib/node_modules/@graphprotocol/indexer-agent/node_modules/@ethersproject/web/lib/index.js:14:53)\n    at fulfilled (/usr/local/lib/node_modules/@graphprotocol/indexer-agent/node_modules/@ethersproject/web/lib/index.js:5:58)\n    at processTicksAndRejections (internal/process/task_queues.js:93:5)","code":-32010},"requestBody":"{\"method\":\"eth_sendRawTransaction\",\"params\":[\"0xf8aa51850ba43b74018305b78e94f55041e37e12cd407ad00ce2910b8269b01263b980b84444c32a61000000000000000000000000c9d16d8bb861581a543d14b0a258b3ce3a922957a2905b86f06918f13d6c5bc0f0d568db18ed82d3b5ce78db1ac03b7e6575c70f25a0ae8a28d30845ea7dc7ee11c07b44c03aa5674506ce37e922d89b45ccfc194edba0220837dd93e20ece68a1b972401be117cd732d9e708239c8133ec64a720f6a3f\"],\"id\":96,\"jsonrpc\":\"2.0\"}","requestMethod":"POST","url":"http://127.0.0.1:8545/","transaction":{"nonce":81,"gasPrice":{"type":"BigNumber","hex":"0x0ba43b7401"},"gasLimit":{"type":"BigNumber","hex":"0x05b78e"},"to":"0xF55041E37E12cD407ad00CE2910B8269B01263b9","value":{"type":"BigNumber","hex":"0x00"},"data":"0x44c32a61000000000000000000000000c9d16d8bb861581a543d14b0a258b3ce3a922957a2905b86f06918f13d6c5bc0f0d568db18ed82d3b5ce78db1ac03b7e6575c70f","chainId":1,"v":37,"r":"0xae8a28d30845ea7dc7ee11c07b44c03aa5674506ce37e922d89b45ccfc194edb","s":"0x220837dd93e20ece68a1b972401be117cd732d9e708239c8133ec64a720f6a3f","from":"0xD96d4B52CAb35cF3DF1d58765bD2eA7cb1Fb6016","hash":"0x8f3151da32b9be0e38a3c0e6e86872bf16c0e66ad65a6986da73da90134d0770"},"transactionHash":"0x8f3151da32b9be0e38a3c0e6e86872bf16c0e66ad65a6986da73da90134d0770"}},"msg":"Failed to close allocation"}
